:020000040800F2
:10000000783100200D0200081502000817020008D0
:10001000190200081B0200081D0200080000000071
:100020000000000000000000000000001F020008A7
:100030002102000800000000230200082502000839
:1000400027020008270200082702000827020008EC
:1000500027020008270200082702000827020008DC
:1000600027020008270200082702000827020008CC
:1000700027020008270200082702000827020008BC
:1000800027020008270200082702000827020008AC
:10009000270200082702000827020008270200089C
:1000A0002702000839250008270200082702000857
:1000B000712500082702000827020008270200080F
:1000C000270200082702000827020008270200086C
:1000D00027020008412C0008B12C00082702000864
:1000E000270200082702000827020008270200084C
:1000F000270200082702000827020008270200083C
:10010000270200082702000827020008270200082B
:10011000270200082702000827020008270200081B
:10012000270200082702000827020008270200080B
:1001300000F002F800F05AF80AA090E8000C82449F
:100140008344AAF10107DA4501D100F04FF8AFF27C
:10015000090EBAE80F0013F0010F18BFFB1A43F0A5
:10016000010318479C3E0000BC3E00000A444FF0CB
:10017000000C10F8013B13F0070408BF10F8014B06
:100180001D1108BF10F8015B641E05D010F8016B4B
:10019000641E01F8016BF9D113F0080F1EBF10F8AF
:1001A000014BAD1C0C1B09D16D1E58BF01F801CBD2
:1001B000FAD505E014F8016B01F8016B6D1EF9D555
:1001C0009142D6D37047000000230024002500266A
:1001D000103A28BF78C1FBD8520728BF30C148BFAA
:1001E0000B6070471FB51FBD10B510BD00F031F892
:1001F0001146FFF7F7FF02F095FF00F04FF803B448
:10020000FFF7F2FF03BC00F057F8000009488047F1
:1002100009480047FEE7FEE7FEE7FEE7FEE7FEE7E8
:10022000FEE7FEE7FEE7FEE704480549054A064B00
:1002300070470000D924000831010008782B002005
:1002400078310020782D0020782D002070477047ED
:100250007047754600F02CF8AE46050069465346D7
:1002600020F00700854618B020B5FFF7DDFFBDE898
:1002700020404FF000064FF000074FF000084FF00D
:10028000000B21F00701AC46ACE8C009ACE8C0099E
:10029000ACE8C009ACE8C0098D46704710B504460B
:1002A000AFF300802046BDE81040FFF7A8BF000074
:1002B00000487047182B002001491820ABBEFEE70C
:1002C0002600020070472DE9F04107460C4615460E
:1002D0001E4600F0EFFC384600F0B2FC00BF00F014
:1002E00035FD0028FBD1204600F0AAFC00BF00F03D
:1002F0002DFD0028FBD1042002F0FCFE284600F072
:100300009FFC00BF00F022FD0028FBD1304600F02A
:1003100097FC00BF00F01AFD0028FBD100F0F0FCB4
:10032000BDE8F08110B504460121204600F01AF81E
:100330000021204601F0E4FC611E024A42F821003F
:1003400010BD00002428002070B504460D46012190
:10035000204600F0DBF800222146284601F0D2FEBC
:1003600070BD000070B504460D4615B1012D6ED16B
:1003700049E00D2C44D2DFE804F043070C11161BB2
:1003800020252A2F34393E000121464800F0F6FA94
:1003900037E00221434800F0F1FA32E004214148FD
:1003A00000F0ECFA2DE008213E4800F0E7FA28E0E2
:1003B00010213C4800F0E2FA23E02021394800F007
:1003C000DDFA1EE04021374800F0D8FA19E080211C
:1003D000344800F0D3FA14E00421334800F0CEFA98
:1003E0000FE00821304800F0C9FA0AE010212E4839
:1003F00000F0C4FA05E020212B4800F0BFFA00E02D
:1004000000BF00BF4BE00D2C45D2DFE804F04407ED
:100410000C11161B21262B30353A3F0001212148B3
:1004200000F0AAFA38E002211E4800F0A5FA33E0F5
:1004300004211C4800F0A0FA2EE00821194800F021
:100440009BFA29E01021174800F096FA24E025E0F5
:100450002021144800F090FA1EE04021114800F0DD
:100460008BFA19E080210F4800F086FA14E004218D
:100470000D4800F081FA0FE008210B4800F07CFAEB
:100480000AE01021084800F077FA05E0202106482C
:1004900000F072FA00E000BF00BF00E000BF00BF44
:1004A00070BD0000001C01400018014008B501218A
:1004B000802001F075F90121402001F071F9FF2041
:1004C000ADF8000010208DF8030003208DF8020025
:1004D00069460C4800F078F9FF210A4800F04EFA0E
:1004E0003C20ADF8000010208DF8030003208DF8AB
:1004F00002006946044800F067F93C21024800F018
:100500003DFA08BD001C01400018014070B50446CA
:100510000D4615B1012D68D133E0092C2ED2DFE84C
:1005200004F02D050A0F14191E232800012130485C
:1005300000F022FA23E002212D4800F01DFA1EE00F
:1005400004212B4800F018FA19E00821284800F08F
:1005500013FA14E01021264800F00EFA0FE02021D3
:10056000234800F009FA0AE04021214800F004FA8B
:1005700005E080211E4800F0FFF900E000BF00BF49
:1005800034E0092C2ED2DFE804F02D050A0F1419EF
:100590001E2328000121164800F0F0F923E0022173
:1005A000134800F0EBF91EE00421114800F0E6F9D1
:1005B00019E008210E4800F0E1F914E010210C4880
:1005C00000F0DCF90FE02021094800F0D7F90AE03B
:1005D0004021074800F0D2F905E08021044800F0EE
:1005E000CDF900E000BF00BF00E000BF00BF70BD5C
:1005F0000008014008B50121042001F0D1F8FF20D6
:10060000ADF8000010208DF8030003208DF80200E3
:100610006946044800F0D8F8FF21024800F0AEF91E
:1006200008BD00000008014070B502460C46FF25D9
:10063000FF2309E012F8010B80EA05010648405C3F
:1006400080EA03050548435C201EA4F10106B4B20C
:10065000F0D143EA052070BDCC000020FE3E00082A
:1006600070B5014600234D7D002203E0D01C085CDC
:100670000344521C122AF9DB642093FBF0F600FBC2
:100680001630C4B2AC4201D1012070BD0020FCE79D
:1006900008B50121202001F083F80F20ADF80000FB
:1006A00010208DF8030001208DF8020069460448EF
:1006B00000F08AF80821024800F05EF908BD000049
:1006C0000014014070B50446002501221146174868
:1006D00000F056F900F02CF800220121134800F038
:1006E0004FF900BF1EE004F40000B0F5000F05D183
:1006F000012204210D4800F043F904E00022042106
:100700000A4800F03DF901220221084800F038F9BA
:1007100000F00EF800220221044800F031F96400D4
:10072000681CC5B2182DDEDB70BD0000001401404E
:100730000A2000BF411E081EFCD1704710B500F012
:1007400025F90446204610BD70B504460D462946DD
:10075000204601F0C7FD70BD08B50121802001F0E1
:100760001FF84FF47F40ADF8000004208DF803001F
:1007700001208DF802006946014800F025F808BD07
:10078000001C014010B500F003F8FFF7E5FF10BDB5
:1007900008B50121402001F003F84FF47F410948DA
:1007A00000F0EAF84FF47F40ADF8000010208DF81B
:1007B000030001208DF802006946024800F004F8A9
:1007C00008BD0000001801402DE9F0410246002557
:1007D0000026002000230024002791F803C00CF01D
:1007E0000F0591F803C00CF0100CBCF1000F03D002
:1007F00091F802C04CEA050591F800C0BCF1000F69
:1008000031D0146800202BE04FF0010C0CFA00F3FB
:10081000B1F800C00CEA03069E4220D183004FF0DD
:100820000F0C0CFA03F7BC4305FA03FC4CEA040472
:1008300091F803C0BCF1280F06D14FF0010C0CFA5F
:1008400000FCC2F814C00AE091F803C0BCF1480FE4
:1008500005D14FF0010C0CFA00FCC2F810C0401C8E
:100860000828D1D31460B1F800C0BCF1FF0F34DD0B
:10087000546800202EE000F1080C4FF0010808FA3F
:100880000CF3B1F800C00CEA03069E4221D18300AC
:100890004FF00F0C0CFA03F7BC4305FA03FC4CEACB
:1008A000040491F803C0BCF1280F05D100F1080C35
:1008B00008FA0CF8C2F8148091F803C0BCF1480F94
:1008C00007D100F1080C4FF0010808FA0CF8C2F843
:1008D0001080401C0828CED35460BDE8F081000091
:1008E000F0B50A46002300240021002500F0004650
:1008F000B6F1004F02D11D4EF16901E01B4E716847
:10090000C0F3034583B200F44016B6F5401F08D18A
:1009100021F07061154E766826F07066134F7E6088
:1009200012E000F48016B6F5801F06D1032606FA01
:1009300005F4A14341F0706106E0460D360103FA6B
:1009400006F6B14341F0706122B1460D360103FA5B
:1009500006F6314300F00046B6F1004F02D1034ED7
:10096000F16101E0014E7160F0BD00000000014046
:100970000146886880B270474161704701617047E5
:100980000AB1016100E041617047000010B5034801
:10099000FFF7EEFF0446200A10BD0000001C0140D6
:1009A0002DE9F0413148007801285DD130490979BD
:1009B0002F4AD27802EBC20303EB021201EB820052
:1009C00003F006F92B49086029498979284A5279A8
:1009D00002EBC20303EB021201EB820003F0F8F812
:1009E000254908602249097A214AD27902EBC203DB
:1009F00003EB021201EB820002F041FE06460022E8
:100A00001E4B02F0B7FC044602F0CEFB1C49086006
:100A10001749897A164A527A02EBC20303EB021293
:100A200001EB820002F02BFE06460022134B02F07F
:100A3000A1FC044602F0B8FB124908600C49097B8E
:100A40000B4AD27A02EBC20303EB021201EB8200E3
:100A500002F015FE06460022084B02F08BFC04460D
:100A600002F0A2FB08490860BDE8F08146000020C2
:100A7000042A0020A8000020AC0000200000244030
:100A8000B0000020B4000020B800002070B505467A
:100A90000C4600F00FF9284600F0D2F800BF00F035
:100AA00055F90028FBD1204600F0CAF800BF00F03D
:100AB0004DF90028FBD100F023F970BD70B5044654
:100AC0000D4600F0F7F8204600F0BAF800BF00F03D
:100AD0003DF90028FBD1012000F07AF80649487062
:100AE000052002F007FB012000F072F8024988702F
:100AF00000F006F970BD00000000002010B50020D5
:100B00000F4908600F48006820F470600D490860C4
:100B10000846006840F44070086000200A49C1F8A7
:100B20008801022002F0E6FA01200549086002204F
:100B300002F0E0FA00200449C1F88C0110BD000069
:100B40008C012442002001400000244208B501210C
:100B5000080200F025FE0C20ADF8000010208DF8F2
:100B6000030003208DF8020069460448FFF72CFEBD
:100B70000C210248FFF702FF08BD000000200140E1
:100B800010B500200F4908600F48006820F470601D
:100B90000D4908600846006840F440700860012074
:100BA0000A49C1F88801022002F0A4FA012005498F
:100BB0000860022002F09EFA00200449C1F88C016E
:100BC00010BD00008C01244200200140000024429E
:100BD00070B5054600241748006820F47060154978
:100BE00008600846006840F400600860002616E0CF
:100BF000002011490860022002F07CFA01200F4910
:100C0000C1F88C016006040E0B488438006808B1F6
:100C1000601CC4B2012002F06DFA701CC6B2082E2E
:100C2000E6DB15B9FFF7ACFF01E0FFF767FF2046F1
:100C300070BD0000002001408C01244200002442CD
:100C400070B504461848006820F4706016490860C2
:100C50000846006840F440700860002013490860AE
:100C600000251EE0E00920B101201049091F08609D
:100C700003E000200D49091F08606006040E0220F1
:100C800002F038FA012009490860022002F032FA25
:100C900000200749C1F88C01022002F02BFA681CE1
:100CA000C5B2082DDEDB70BD002001408C0124425E
:100CB0000000244210B50F48006820F470600D4910
:100CC00008600846006840F44070086001200A4946
:100CD00008600A49C1F88C01042002F00BFA0020D8
:100CE00005490860042002F005FA00200349C1F814
:100CF0008C0110BD002001408801244200002442E4
:100D000010B50F48006820F470600D49086008466F
:100D1000006840F44070086000200A4908600A49F1
:100D2000C1F88801042002F0E5F9012005490860B6
:100D30000549C1F88801042002F0DCF910BD00006B
:100D4000002001408C0124420000244210B5002400
:100D50001448006820F47060124908600846006872
:100D600040F40060086001200F49086002F0C2F9F9
:100D700001200E49C1F88C0102F0BCF907E0601CAB
:100D8000C4B2FA2C03DDFFF7BBFF012010BD0648FB
:100D9000803800680028F2D10349091D086000BFAF
:100DA000F4E70000002001408801244200002442B2
:100DB00008B50121082000F0F3FC4FF40070ADF8F5
:100DC000000003208DF8020010208DF80300694612
:100DD0000148FFF7F9FC08BD000C014070B55C4804
:100DE00040795B49097940EA01205A4908805A480C
:100DF00000880988084464287EDA554800785749F5
:100E0000087053484078487052490888C11700EB71
:100E10005171CD104F490888C11700EB5171C910AD
:100E2000A0EBC10109B1681C85B24C498D7000244A
:100E300061E0E11704EB5171C910A4EBC10141B9A4
:100E400000222046E11704EB5171C910C91C434B25
:100E50005A54E11704EB5171C910C91C3F4A515C47
:100E60004A102046E11704EB5171C910C91C3B4BD5
:100E70005A54E11704EB5171C910C91C1A46515C50
:100E8000354A12882244364B53F8222012688023B8
:100E900003EAC2121143E21704EB5272D210D21CC1
:100EA0002E4B99542B480088401EA04221D129493D
:100EB0000888C11700EB5171C910A0EBC101C1B185
:100EC000E21704EB5272D210D21C9A5C214B1988A3
:100ED000CB1701EB5373DB10A1EBC303C3F1080382
:100EE0001A412046E31704EB5373DB10DB1C1B4E47
:100EF000F254601C84B200E01AE016480088844274
:100F000097DBE81C81B21548FFF78EFB1549088076
:100F100008460088010A114AE81C1154114801785A
:100F2000281D1154681DC1B2104600F0C1FD0EE02D
:100F300007480078094908700548407840F080006B
:100F40004870022088700321044800F0B1FD70BD94
:100F500064050020C8000020C6000020640D0020A9
:100F6000F4160020CA00002070B55C4840795B4947
:100F7000097940EA01205A4908805A4800880988BE
:100F8000084464287EDA5548007857490870534869
:100F90004078487052490888C11700EB5171CD1054
:100FA0004F490888C11700EB5171C910A0EBC1016E
:100FB00009B1681C85B24C498D70002461E0E117CD
:100FC00004EB5171C910A4EBC10141B900222046C4
:100FD000E11704EB5171C910C91C434B5A54E11776
:100FE00004EB5171C910C91C3F4A515C4A1020469C
:100FF000E11704EB5171C910C91C3B4B5A54E1175E
:1010000004EB5171C910C91C1A46515C354A12884B
:101010002244364B53F822201268802303EAC2127E
:101020001143E21704EB5272D210D21C2E4B99548A
:101030002B480088401EA04221D129490888C117A9
:1010400000EB5171C910A0EBC101C1B1E21704EB73
:101050005272D210D21C9A5C214B1988CB1701EB2B
:101060005373DB10A1EBC303C3F108031A412046FD
:10107000E31704EB5373DB10DB1C1B4EF254601CB4
:1010800084B200E01AE016480088844297DBE81C2E
:1010900081B21548FFF7C8FA15490880084600884C
:1010A000010A114AE81C115411480178281D1154F5
:1010B000681DC1B2104600F0FBFC0EE00748007846
:1010C000094908700548407840F0800048700220C7
:1010D00088700321044800F0EBFC70BD640500201B
:1010E000C8000020C6000020640D00206415002008
:1010F000CA00002010B5394840793849097940EADA
:101100000120374908803748008809880844B0F52D
:101110007A7F53DA31480078334908702F48407895
:1011200048702F4800784006000E8870002419E0AF
:101130002C48008820442D4951F820000088000ADE
:10114000032101EB4401284A5054264800882044DA
:10115000264951F820000078042101EB4401505445
:10116000601CC4B21E4800888442E1DB1C48008831
:10117000032202EB400081B21B48FFF755FA1C49DD
:10118000088008460088010A15480088032202EBFF
:101190004000154A1154164801781148008804226D
:1011A00002EB4000104A11540D480078052202EB72
:1011B0004000C1B20C4800F07BFC0EE0074800780C
:1011C000094908700548407840F0800048700220C6
:1011D00088700321044800F06BFC10BD64050020FA
:1011E000C8000020C6000020640D002084180020E4
:1011F000CA00002010B52848008864283CDA274837
:101200000079FF2803D025484079FF2807D1012025
:101210002349214A128851F82210086006E0002074
:101220001F491D4A128851F8221008601B48007897
:101230001C490870194840784870184880788870B0
:101240001648C078C870154800790871134840796D
:10125000487106211348FFF7E7F91349088008464B
:101260000088000A0F4988710F480078C87108216A
:101270000C4800F01DFC0EE0084800780949087091
:101280000648407840F080004870022088700321B2
:10129000044800F00DFC10BDC600002064050020CD
:1012A000F4160020640D0020CA00002010B51F486D
:1012B000007900021E491F4A128851F82210088046
:1012C0001B481C49098850F82100008817494979B2
:1012D00008431749174A128851F82210088013480A
:1012E0000078154908701148407848700F48807898
:1012F00088700E48C078C8700C48007908710B4897
:101300004079487106210C48FFF78EF90B49088097
:1013100008460088000A0849887108480078C871A2
:101320000821054800F0C4FB10BD00006405002042
:1013300084180020C6000020640D0020CA00002090
:1013400010B53B4840793A49097940EA01203949CA
:1013500008803948008809880844642858DA00243D
:101360002CE0E11704EB5171C910C91D304A515CE2
:1013700001F0010141B101202F49098821442F4A80
:1013800052F82110086007E000202B490988214409
:101390002A4A52F821100860E11704EB5171C91074
:1013A000C91D234A515C4A102046E11704EB5171D4
:1013B000C910C91D1E4B5A54601C84B21D480088B8
:1013C0008442CEDB1A4800781D49087018484078DE
:1013D00048701748807888701548C078C8701448DD
:1013E0000079087112484079487106211448FFF7C6
:1013F0001BF91449088008460088000A10498871C2
:1014000010480078C87108210D4800F051FB0EE02B
:10141000074800780A4908700548407840F0800085
:101420004870022088700321054800F041FB10BD80
:1014300064050020C8000020C6000020F41600202B
:10144000640D0020CA00002010B5374840793649A5
:10145000097940EA01203549088035480088098823
:101460000844B0F57A7F4EDA002422E0072000EB32
:1014700044002D49085C00022D49098821442D4A69
:1014800052F8211008802A4800882044114651F85B
:1014900020000088082101EB4401234A515C0843E5
:1014A000234909882144234A52F821100880601CEE
:1014B000C4B21E4800888442D8DB1B4800781E490D
:1014C0000870194840784870174880788870164826
:1014D000C078C87014480079087113484079487181
:1014E00006211548FFF7A0F814490880084600882F
:1014F000000A1149887111480078C87108210E4806
:1015000000F0D6FA0EE0084800780B49087006484B
:10151000407840F08000487002208870032106481F
:1015200000F0C6FA10BD000064050020C8000020CD
:10153000C600002084180020640D0020CA0000208E
:10154000084809490860001F4860001F8860074874
:10155000C860074807490860001D486006480749F9
:1015600008607047100123426415002000012142E9
:10157000A4812342F41600202600002084180020B5
:1015800010B5FEF793FFFFF735F810BD08B5002141
:101590004FF0006000F07AF84FF4407000F06CF803
:1015A00025208DF8000001208DF8010000208DF825
:1015B000020001208DF80300684600F025F826207F
:1015C0008DF8000000208DF8010001208DF8030047
:1015D000684600F019F819208DF8000002208DF8F7
:1015E000010001208DF80300684600F00DF81C2072
:1015F0008DF8000003208DF8010001208DF8030014
:10160000684600F001F808BD70B5002100230F22E4
:10161000C47804B3154C246804F4E064C4F5E064B1
:10162000210AC1F10403CA40447804FA03F1847822
:101630001440214309010E4C0678A155047804F0AA
:101640001F050124AC4005786D11AD0005F1E025C2
:10165000C5F8004109E0047804F01F050124AC40FE
:10166000044D0678761145F8264070BD0CED00E07B
:1016700000E400E080E100E002490143024A116019
:10168000704700000000FA050CED00E0024A0A4035
:101690000243024B1A60704780FFFF1F08ED00E015
:1016A00010B588B00446214804800121022000F0D2
:1016B00057F80121112000F073F801211C48FFF7B1
:1016C0000FF94020ADF81C0018208DF81F000320F2
:1016D0008DF81E0007A91748FFF776F8601E80B244
:1016E000ADF8140041F61F40ADF810000020ADF831
:1016F0001600ADF8120004A90F4801F0C1F86020EF
:10170000ADF800000120ADF802000020ADF808009F
:101710006946094801F05AF80821074801F0A2F883
:101720000121054800F037FF08B010BD2E00002051
:10173000000C1A00001001400004004010B50446DF
:1017400005480088844201DD034804882146034897
:1017500001F091F810BD00002E00002000040040B0
:1017600029B1064AD2690243044BDA6104E0034A14
:10177000D2698243014BDA617047000000100240D9
:1017800029B1064A12690243044B1A6104E0034A74
:1017900012698243014B1A61704700000010024039
:1017A00029B1064A92690243044B9A6104E0034A54
:1017B00092698243014B9A61704700000010024019
:1017C00029B1064AD2680243044BDA6004E0034AB6
:1017D000D2688243014BDA6070470000001002407B
:1017E00010B500F029F84FF4803000F0E7F800F071
:1017F00043F90446012C1ED1002000F0D3F800204C
:1018000000F00EF9A00200F0FFF84FF4E011200400
:1018100000F018F9012000F00FF900BF392000F0A6
:101820009BF80028FAD0022000F01AF900BF00F05F
:10183000B1F80828FBD110BD0F48006840F0010046
:101840000D490860084640680C4908400A4948604C
:10185000084600680A4908400749086008460068C9
:1018600020F4802008600846406820F4FE004860AC
:101870004FF41F0088607047001002400000FFF81E
:10188000FFFFF6FE30B500210022002400232D4D7D
:101890006D6805F00C0121B1042905D0082923D178
:1018A00005E0294D056022E0274D05601FE0254D2C
:1018B0006D6805F47012234D6D6805F480340225BF
:1018C00005EB92421CB9214D554305600BE01D4DBF
:1018D0006D6805F400351DB11C4D5543056002E0EF
:1018E000194D5543056002E0174D056000BF00BF6C
:1018F000144D6D6805F0F0010909154D6B5C056824
:10190000DD4045600F4D6D6805F4E061090A104D3A
:101910006B5C4568DD4085600A4D6D6805F460517B
:10192000C90A0B4D6B5C4568DD40C560054D6D68AF
:1019300005F44041890B074D6B5CC568B5FBF3F5B9
:10194000056130BD0010024000127A0000093D0020
:10195000CC010020DC01002010B50146002200234C
:1019600000204A11012A02D1094C236806E0022A0C
:1019700002D1074C236A01E0054C636A01F01F02A3
:10198000012494401C400CB1012000E0002010BD57
:10199000001002400248406800F00C007047000050
:1019A0000010024001460020034A506820F0F00079
:1019B0000843506070470000001002401149096858
:1019C00021F480310F4A11601146096821F4802109
:1019D0001160B0F5803F03D0B0F5802F0ED106E046
:1019E0000849096841F48031064A116007E0054959
:1019F000096841F4A021034A116000E000BF00BF64
:101A0000704700000010024001460020034A506861
:101A100020F4E0600843506070470000001002406E
:101A200001460020034A506820F4605040EAC1009B
:101A3000506070470010024001490866704700007E
:101A40000000424202460020044B586820F47C10FB
:101A500042EA01031843014B5860704700100240EE
:101A600001460020034A506820F0030008435060FC
:101A7000704700000010024038B50020009000249C
:101A8000002500BF3120FFF767FF05460098401C86
:101A900000900098B0F5A06F01D0002DF2D0312059
:101AA000FFF75AFF08B1012400E00024204638BDAA
:101AB00070B505460E4600200D49086000240CE074
:101AC00000BF80210B4801F0D3F90028F9D0295D2F
:101AD000084801F09AFA601CC4B2B442F0DB00BFBF
:101AE0004021044801F0C4F90028F9D070BD00007D
:101AF000A00121420038014010B556480078012865
:101B00007ED155480078012869D153484078012892
:101B100017D051484078022813D04F484078032806
:101B20000FD04D48407805280BD04B484078062808
:101B300007D0494840780F2803D0474840781028FC
:101B400070D14548C0784449897840EA012043492A
:101B5000088008460088B0F57A7F52DA404800884D
:101B6000801E81B23C48FEF75FFD3E4908803C483C
:101B70000088401E3849095C39480088801E364A72
:101B8000105C41EA002437480088A04228D1104662
:101B90004078052814D006DC01280BD002280CD090
:101BA00003281CD112E0062813D00F280BD01028D0
:101BB00015D111E0FFF712F911E0FFF7D5F90EE0AA
:101BC000FFF718FB0BE0FFF7BBFB08E0FFF792FA0B
:101BD00005E0FFF76BFB02E0FFF736FC00BF30E0EB
:101BE0001D480078204908701B48407840F080006C
:101BF00048700420887003211B48FFF759FF20E03C
:101C000027E015480078184908701348407840F0DC
:101C1000800048700220887003211348FFF748FFB6
:101C20000FE0FFE70C4800780F4908700A48407839
:101C300040F0800048700120887003210A48FFF7B7
:101C400037FF002003490870054908800120074933
:101C5000086010BD2A00002064050020C600002096
:101C600028000020CA000020640D0020A0012142AD
:101C700008B501210802FFF793FD01210820FFF7B5
:101C80008FFD4FF42040ADF8000003208DF80200D6
:101C900010208DF8030069461748FEF795FD4FF4B4
:101CA0008040ADF8000003208DF8020048208DF838
:101CB000030069461048FEF787FD4FF4C070ADF889
:101CC000000003208DF8020010208DF80300694603
:101CD0000A48FEF779FD4FF400510748FEF74CFE25
:101CE00001F0FDF980210548FEF748FE4FF48071B0
:101CF0000248FEF743FE08BD00200140000C0140F1
:101D00002DE9F04F87B081468A464FF0000BC22480
:101D1000BAF1000F03D0BAF1010F04D101E0CE24D3
:101D200002E0C22400E000BF00BFB9F10D0F7DD278
:101D3000DFE809F07C0725456587A5C5E5FDFCFBC7
:101D4000FA00E2B2E22301219020FEF7BCFA022061
:101D500001F09EF900219020FEF798FE022001F08C
:101D600097F900219120FEF7A9FEDD488078DC4933
:101D7000497840EA012000B2DA49088063E1E0B224
:101D800040F01002E22301219020FEF79CFA02208D
:101D900001F07EF900219020FEF778FE022001F08C
:101DA00077F900219120FEF789FECD488078CC4953
:101DB000497840EA012000B2CA49088043E1E0B214
:101DC00040F02002E22301219020FEF77CFA02205D
:101DD00001F05EF900219020FEF758FE022001F08C
:101DE00057F900219120FEF769FEBD488078BC4973
:101DF000497840EA012000B2BA49088023E1E0B204
:101E000040F03002E22301219020FEF75CFA02202C
:101E100001F03EF900219020FEF738FE022001F08B
:101E200037F900219120FEF749FE00E00AE1AC48B5
:101E30008078AB49497840EA012000B2A94908807E
:101E400001E1E2B2E22301219220FEF73CFA0220F6
:101E500001F01EF900219220FEF718FE022001F089
:101E600017F900219320FEF729FE9D4880789C49B0
:101E7000497840EA012000B29A490880E3E0E0B2E4
:101E800040F01002E22301219220FEF71CFA02200A
:101E900001F0FEF800219220FEF7F8FD022001F08B
:101EA000F7F800219320FEF709FE8D4880788C49D1
:101EB000497840EA012000B28A490880C3E0E0B2D4
:101EC00040F02002E22301219220FEF7FCF90220DB
:101ED00001F0DEF800219220FEF7D8FD022001F08B
:101EE000D7F800219320FEF7E9FD7D4880787C49F2
:101EF000497840EA012000B27A490880A3E0E0B2C4
:101F000040F03002E22301219220FEF7DCF90220AA
:101F100001F0BEF800219220FEF7B8FD022001F08A
:101F2000B7F80021932003E06CE04BE02AE00BE0DF
:101F3000FEF7C4FD6A4880786949497840EA012083
:101F400000B2684908807EE0E2B2E22301219420D9
:101F5000FEF7B9F9022001F09BF800219420FEF76A
:101F600095FD022001F094F800219520FEF7A6FDD2
:101F70005B4880785A49497840EA012000B25949C3
:101F8000088060E0E0B240F01002E22301219420DA
:101F9000FEF799F9022001F07BF800219420FEF76A
:101FA00075FD022001F074F800219520FEF786FDF2
:101FB0004B4880784A49497840EA012000B24949B3
:101FC000088040E0E0B240F02002E22301219420AA
:101FD000FEF779F9022001F05BF800219420FEF76A
:101FE00055FD022001F054F800219520FEF766FD12
:101FF0003B4880783A49497840EA012000B23949A3
:10200000088020E0E0B240F03002E2230121942079
:10201000FEF759F9022001F03BF800219420FEF769
:1020200035FD022001F034F800219520FEF746FD31
:102030002B4880782A49497840EA012000B2294992
:10204000088000E000BF00BFBAF1000F03D0BAF172
:10205000010F3CD11AE02348B0F9000001F00FFB5A
:10206000214A224BCDE9020101F05CFB0746002228
:102070001F4B01F07FF900221E4BCDE9040101F056
:1020800051FB054601F090F8834623E01548B0F96E
:10209000000001F0F4FA0746134A174B01F042FB27
:1020A00005460022124B01F065F90022134BCDE9E1
:1020B000000101F05FF90022114BCDE9020101F0AE
:1020C00031FBCDE9040101F06FF8834602E04FF0E7
:1020D000000B00BF00BF584607B0BDE8F08F0000FE
:1020E0000000002008000020FCA9F1D24D62D03F82
:1020F000C0FFDF40008049404D6210400000694051
:1021000000408F402DE9F74F88B08A469346002162
:10211000089801F075FD01D200200890BBF1000F76
:1021200003D0BBF1010F18D10BE0089801F018FDA6
:1021300004465F4A5F4B01F0F3FB01D25E48089012
:102140000CE0089801F00CFD04465C4A5C4B01F081
:10215000E7FB01D25B48089000E000BF00BFBBF185
:10216000000F03D0BBF1010F55D119E0089801F021
:10217000F7FC00224FF08043CDE9060101F0FAF8A8
:1021800006460022504B01F0F5F8044600224F4B62
:1021900001F0C8FA804601F045FA4D4908803EE05A
:1021A000089801F0DDFC04464A4A4B4B01F07EFAE8
:1021B00003D80020464908802CE0089801F0D0FCA4
:1021C0000446444A444B01F0E1FB0646434A444B73
:1021D00001F0D0F80022374B8433CDE9000101F043
:1021E000A1FA00224FF08043CDE9020101F0C2F8CC
:1021F0000022354BCDE9040101F0BCF80022334B3D
:10220000CDE9060101F08EFA804601F00BFA304963
:10221000088004E000BF00202D49088000BF00BFF7
:10222000BAF1090F3ED2DFE80AF03D050C131A217E
:10223000282F36002649098801F58010FEF742FA5A
:1022400031E02349098801F59010FEF73BFA2AE0B6
:102250001F49098801F5A010FEF734FA23E01C4954
:10226000098801F5B010FEF72DFA1CE0184909881D
:1022700001F5A000FEF726FA15E01549098801F5D9
:10228000A400FEF71FFA0EE01149098801F5A80025
:10229000FEF718FA07E00E49098801F5AC00FEF7D1
:1022A00011FA00E000BF00BF0BB0BDE8F08F0000E6
:1022B000736891ED7CFF2340E7FB1F4139B4C8767A
:1022C000BEFF3340F4FD9F41000014400000F04089
:1022D00018000020016A6AD95ADF0F40D4601A86BC
:1022E0008F18304070B504460D4615B1012D79D1D7
:1022F0003BE0092C36D2DFE804F035050B11171D41
:1023000023292F004FF480713848FEF735FB2AE06F
:102310004FF400713548FEF72FFB24E04FF4806145
:102320003248FEF729FB1EE04FF400612F48FEF70C
:1023300023FB18E04FF480512C48FEF71DFB12E000
:102340004FF400512948FEF717FB0CE04FF4804191
:102350002648FEF711FB06E04FF400412348FEF744
:102360000BFB00E000BF00BF3DE0092C37D2DFE8E7
:1023700004F036050B11171D232930004FF480712E
:102380001A48FEF7FBFA2BE04FF400711748FEF7EE
:10239000F5FA25E04FF480611448FEF7EFFA1FE0EC
:1023A0004FF400611148FEF7E9FA19E04FF480514B
:1023B0000E48FEF7E3FA13E04FF400510B48FEF726
:1023C000DDFA0DE04FF480410848FEF7D7FA07E048
:1023D00008E04FF400410548FEF7D0FA00E000BFE6
:1023E00000BF00E000BF00BF70BD0000001801404A
:1023F00010B500F001F810BD0CB500200190009060
:102400003348006840F480303149086000BF3048EC
:10241000006800F4003000900198401C0190009882
:1024200018B90198B0F5A06FF1D12948006800F4FF
:10243000003010B10120009001E0002000900098D1
:10244000012843D12348006840F01000214908606A
:102450000846006820F0030008600846006840F065
:10246000020008601A4840681949486008464068F8
:1024700048600846406840F480604860084640680C
:1024800020F47C1048600846406840F4E81048603A
:102490000846006840F08070086000BF0C48006883
:1024A00000F000700028F9D00948406820F00300CF
:1024B000074948600846406840F00200486000BF95
:1024C0000348406800F00C000828F9D10CBD00005A
:1024D000001002400020024010B51348006840F090
:1024E00001001149086008464068104908400E493B
:1024F0004860084600680E4908400B4908600846D5
:10250000006820F4802008600846406820F4FE003F
:1025100048604FF41F008860FFF76AFF4FF00060CB
:102520000449086010BD0000001002400000FFF8E0
:10253000FFFFF6FE08ED00E010B50121094800F0AC
:102540002BF968B10121074800F022F80021054865
:1025500000F021F8002004490860012003490870B8
:1025600010BD0000002C0140A00121422A000020E3
:1025700010B50121880700F00FF908B100F0D2F979
:102580000121880700F004F810BDCA430282704799
:10259000CA430282704721B1028842F001020280E0
:1025A00004E002884FF6FE731A4002807047000074
:1025B00010B504466848844208D10121C014FFF7D1
:1025C000FFF80021E014FFF7FBF8C4E0B4F1804FFE
:1025D00008D101210846FFF7D3F800210120FFF7B9
:1025E000CFF8B8E05D48844208D101210220FFF70E
:1025F000C7F800210220FFF7C3F8ACE05848844236
:1026000008D101210420FFF7BBF800210420FFF7C7
:10261000B7F8A0E05348844208D101210820FFF711
:10262000AFF800210820FFF7ABF894E04E48844251
:1026300008D101211020FFF7A3F800211020FFF797
:102640009FF888E04948844208D101212020FFF703
:1026500097F800212020FFF793F87CE0444884425B
:1026600008D101214014FFF7ABF800216014FFF7F7
:10267000A7F870E03F48844209D10121C804FFF760
:102680009FF800214FF40020FFF79AF863E03A48E2
:10269000844209D101210805FFF792F800214FF487
:1026A0008010FFF78DF856E03448844209D10121AB
:1026B0004805FFF785F800214FF40010FFF780F878
:1026C00049E02F48844208D101214020FFF758F803
:1026D00000214020FFF754F83DE02A48844208D109
:1026E00001218020FFF74CF800218020FFF748F8F7
:1026F00031E02548844208D101218015FFF740F8D8
:102700000021A015FFF73CF825E02048844209D1BC
:1027100001210804FFF754F800214FF48030FFF73F
:102720004FF818E01A48844209D101214804FFF704
:1027300047F800214FF40030FFF742F80BE015484E
:10274000844208D101218804FFF73AF800214FF4B0
:102750008020FFF735F810BD002C01400004004038
:1027600000080040000C0040001000400014004031
:1027700000340140004C0140005001400054014031
:1027800000180040001C00400020004000400140B4
:10279000004401400048014030B5024600200023BB
:1027A0000024158A05EA0103958905EA010413B19D
:1027B0000CB1012000E0002030BD1AB183890B4329
:1027C000838102E083898B438381704770B5002445
:1027D00000220023058C4FF6FE7635400584028CDE
:1027E0008388048B4FF68F752C40B51E2C400D88C6
:1027F0002C43751E2A400D892A434D882A43144DC7
:10280000A8420BD0134DA84208D0134DA84205D0C2
:10281000124DA84202D0124DA84213D14FF6F775BF
:102820002A404D892A434FF6FB752A408D882A435A
:102830004FF6FF652B404FF6FF552B408D892B43FC
:10284000CD892B4383800483CD888586028470BD27
:10285000002C014000340140004001400044014090
:10286000004801400A460021018B4FF6F7731940DA
:10287000114301837047818670478184704700004F
:10288000002202881D4B98420ED01D4B98420BD05F
:10289000B0F1804F08D01B4B984205D01A4B98429C
:1028A00002D01A4B984204D14FF68F731A404B88CE
:1028B0001A43174B984207D0164B984204D04FF654
:1028C000FF431A40CB881A4302808B8883850B888C
:1028D00003850A4B98420BD0094B984208D00E4B07
:1028E000984205D00D4B984202D00D4B984201D131
:1028F0000B7A03860123838270470000002C01407D
:10290000003401400004004000080040000C00407A
:10291000001000400014004000400140004401400D
:102920000048014010B50E480078052811D2DFE8B4
:1029300000F0030407080C000CE0FEF731F809E092
:1029400008E001200749087004E0002005490870EC
:1029500000E000BF00BF00200149087010BD00006A
:10296000460000204500002030B5044600252046E2
:10297000FDF776FE054655B12078552802D06078DF
:10298000662802D1A07803490870012030BD0020DC
:10299000FCE70000460000202DE9F041074688468C
:1029A00014460025552228466D1C225466222846CE
:1029B0006D1C22540F48027828466D1C22540026B4
:1029C00005E018F8062028466D1C2254761CBE42ED
:1029D000F7DB4146384600F049FB29466D1C605440
:1029E000662228466D1C2254552228466D1C22540E
:1029F000BDE8F081460000200EB501210846FEF733
:102A0000AFFE4FF08040FFF7D3FD4FF4FA60ADF812
:102A1000040048F69F40ADF800000020ADF8060025
:102A2000ADF8020069464FF08040FFF729FF012111
:102A30008807FFF7AAFD012211469007FFF7BDFEA8
:102A400001218807FFF7A7FD0EBD00000EB501218B
:102A5000C802FEF7A5FE1148FFF7AAFD2820ADF831
:102A6000040041F61F40ADF800000020ADF806005C
:102A7000ADF802008DF8080069460848FFF700FF2E
:102A800001210648FFF781FD012211460348FFF7A7
:102A900094FE01210148FFF77EFD0EBD002C014090
:102AA00000B585B001210420FEF77AFE0121202027
:102AB000FEF776FE01212020FEF772FE0121880339
:102AC000FEF76EFE01210846FEF76AFE012148046A
:102AD000FEF746FE01218804FEF742FE0121504820
:102AE000FDF7FEFE01210820FDF7FAFE4FF480609D
:102AF000ADF8000004208DF8030069464948FDF751
:102B000063FE4020ADF8000069464748FDF75CFED3
:102B10004FF40070ADF8000069464348FDF754FEDD
:102B20004FF40070ADF8000003208DF8020018206B
:102B30008DF8030069463B48FDF746FE2020ADF8BE
:102B4000000069463848FDF73FFE4FF48070ADF84D
:102B5000000069463448FDF737FE8020ADF80000DC
:102B600003208DF8020010208DF8030069462E48DE
:102B7000FDF72AFE4FF48070ADF8000003208DF8B9
:102B8000020010208DF8030069462648FDF71CFE60
:102B90000120264908602649C1F89C014FF41650CF
:102BA00001900020ADF80800ADF80A00ADF80C0067
:102BB000ADF810000C20ADF80E0001A91D4800F082
:102BC000B3F94FF41650019001A91B4800F0ACF97D
:102BD0004FF4E130019001A9184800F0A5F9012255
:102BE00040F22551134800F07AF9012240F22551B4
:102BF000114800F074F9012240F225510F4800F00D
:102C00006EF901210B4800F027F901210A4800F074
:102C100023F90121094800F01FF905B000BD0000AB
:102C2000300014000008014000140140A0012142BE
:102C3000008022420038014000440040004800402B
:102C400070B540F22551164800F01FF938B307213E
:102C5000134800F00DF908B1012400E000241048E9
:102C600000F0CEF9C5B20F48008840F2FF718842EB
:102C700015DAA4B90C480B4909884554094800885D
:102C8000401C0849088001210848FFF781FC002109
:102C90000648FFF7F2FD01210448FFF77CFC70BDF8
:102CA000003801402800002064050020002C01406D
:102CB00070B50025002608214F4800F0D9F838B13A
:102CC0004D4800F0B2F9044608214B4800F0B5F831
:102CD0000421494800F0CCF818B10421464800F01E
:102CE000A3F80221444800F0C3F818B10221424879
:102CF00000F09AF80121404800F0BAF818B101211B
:102D00003D4800F091F840F225513B4800F0BDF8F5
:102D1000002858D040F22551374800F08EF8364848
:102D200000F083F90446354801680068401C334AC6
:102D300010603348445410460068182808D13048C1
:102D4000807D662804D12E48C07D552800D10125FC
:102D50000DB30025294800682A490860002027494A
:102D600008602748FDF77CFC0646A6B12448FFF71B
:102D7000FBFD25480078012805D1244A244912206A
:102D8000FFF70AFE1FE020480078022804D12149FD
:102D9000182000F03EF916E01B480078032807D100
:102DA00001201D4908701D49182000F032F90AE081
:102DB00015480078042806D10020174908701849E2
:102DC000182000F026F940F227710B4800F05DF85A
:102DD00080B140F22771084800F02FF80A2000F077
:102DE00057F901200F490860002240F2277102487C
:102DF00000F075F870BD0000004400403000002075
:102E0000042A00204000002046000020502A002014
:102E10001C2A00205F0000204500002077000020D1
:102E20008F0000209C81224201F40072B2F5007FE5
:102E300000D100BFCA430280704710B500220023B2
:102E400040F66A14A14200D100BF0A120124944046
:102E5000A3B2DC43048010BD21B1828942F4005248
:102E6000828104E082894DF6FF731A4082817047A7
:102E700002460020B1F5007F00D100BF13880B404F
:102E80000BB1012000E00020704770B5024600241D
:102E900000230025002040F66A16B14200D100BF91
:102EA000C1F3421501F01F03012606FA03F3012DB9
:102EB00002D19689334006E0022D02D1168A3340B2
:102EC00001E0968A33400C12012606FA04F41688B3
:102ED000344013B10CB1012000E0002070BDF0B50A
:102EE0000346002400260025002040F66A17B94258
:102EF00000D100BF1846C1F3421401F01F0601279C
:102F000007FA06F5012C01D10C3004E0022C01D1A6
:102F1000103000E014301AB107682F43076002E058
:102F20000768AF430760F0BD2DE9F04786B005465E
:102F30000E460024A24600BFA1460027B08900B17A
:102F400000BF2F462C8A4CF6FF700440F0880443E3
:102F50002C82AC894EF6F3100440B08831890843C6
:102F6000718908430443AC81AC8A4FF6FF400440AA
:102F7000B0890443AC8201A8FEF784FC1F48874255
:102F800002D1DDF810A001E0DDF80CA0A88900F462
:102F9000004040B10AEBCA0000EB0A10316849005A
:102FA000B0FBF1F807E00AEBCA0000EB0A10316849
:102FB0008900B0FBF1F86420B8FBF0F004012009AF
:102FC000642101FB1089A88900F4004040B132203F
:102FD00000EBC900B0FBF1F000F00700044308E08B
:102FE000322000EB09106421B0FBF1F000F00F007B
:102FF00004432C8106B0BDE8F08700000038014092
:1030000001468888C0F308007047C1F30802828037
:10301000704770B505460E46002403E0305D00F0B1
:103020000DF8641CAC42F9DB70BD70B50446204657
:10303000FFF7E6FFC5B2284670BD000010B5044694
:103040000020084908600C2000F022F8012240F21C
:1030500027710548FFF743FF21460348FFF7D5FFD7
:1030600010BD00009C8122420044004070B5024621
:103070000B460024002102E05D5C2C44491C914277
:10308000FADB642594FBF5F605FB1645E8B270BD46
:1030900001B54FF47A70009901EBC101C9004FF0FE
:1030A000E02251610521116112E000BF4FF0E021E3
:1030B000096901F480310029F8D04FF0E021096955
:1030C00021F480314FF0E0221161401E00B900E090
:1030D000EBE700BF04214FF0E022116108BD08B505
:1030E0004FF4FA70009000BF0098411E0091002834
:1030F000FAD108BD01B5009800EBC000C0004FF048
:10310000E02148610520086100BF4FF0E020006920
:1031100000F480300028F8D004204FF0E02108614E
:1031200008BD0000FEF75CFBFEF72AFA00F038F855
:10313000FDF7AEFAFDF726FBFEF79AFDFDF738FE28
:10314000FFF7AEFCFFF782FCFFF756FCFEF71EFA16
:10315000FEF7F6F91FE0FEF7CFFC0220FDF7E2F8DC
:103160004FF082410120FDF7EFF84FF0824102203D
:10317000FDF7EAF801210846FDF7E6FAFDF7DEFA69
:10318000054908706420FEF78BFA4620FEF7D6FA50
:10319000002002490860DEE734000020A4812142BB
:1031A00010B5FDF7D3FC10BD21F00042A2F1605232
:1031B000B2F5801F01F0004328BFD2F17F6C0BD91C
:1031C0005FEA001C43EAC20242EB507018BF70472E
:1031D00028BF20F001007047B2F5801FBCBF184621
:1031E00070474FEA410C1CF5001F02D2084600F060
:1031F00081BD70B500F040FB00000089FFF7F6BF0D
:103200004FF00040A0F580007047000010B591EA33
:10321000030F48BF83F0004300F1C083841A71EBB1
:10322000030C05D2121943EB0C03001B61EB0C01DC
:10323000DFF824E14FEA1154A4EB135C1EEA430FBC
:1032400018BF9EEA445F73D023EA0E03DCF1200E20
:1032500021EA045143F4801332D322FA0CFE10EB1E
:103260000E0023FA0CFE41EB0E01CCF1200E03FA06
:103270000EFE10EB0E0051F10001B1F5801FCCF1F4
:10328000200E32D201EB045112FA0EF2BDE81040CA
:1032900058BF7047401C38BF5FEA420218BF7047F2
:1032A000002814BF20F0010041F100014FEA410362
:1032B00013F5001F38BF7047A1F1C04100F02ABBD1
:1032C000012A43EB0302ACF1200CDCF11F0E32BFEC
:1032D0004FF0000E23FA0CF310EB030041EB045106
:1032E000B4EB115FD0D0A1EB045101F58011490876
:1032F0005FEA300001EB04510ED350F1000038BFFB
:1033000012FA0EFE08D1BDE81040C9E7401C38BFD4
:103310005FEA4202CAD1C3E7BDE810404FEA410369
:1033200013F5001F38BF7047A1F1C04100F0F2BA99
:103330009EEA445F08D011EA5E0FBDE8104004BF6A
:1033400001F0004100207047BDE8104070B500F06A
:1033500093FA00BF64FBBE3E0000E0FF491058BF77
:10336000C1F140415B1058BFC3F140438B42EFF3C2
:10337000008070472DE9C04130B4DFF8A0C23CEABC
:10338000111418BF3CEA131400F0EC8081EA030525
:103390001CEA111444EAD57418BF1CEA131500F096
:1033A000C780A4EB05044FF0004545EAC12145EA7A
:1033B000C32341EA505143EA525304F17F749942C6
:1033C00004F500344FEAC0204FEAC22208BF904201
:1033D00000F09C804FEA13650FF24016765D4FEACD
:1033E000134506FB05F7C7F1807706FB07F74FEAA1
:1033F000D737A7FB03687642C8F58038A7FB06CE0F
:1034000038BFA8F1010807FB08E64FF0000EA6FB45
:10341000028CE6FB03CEDCF1000CCEF1004E38BF8F
:10342000AEF1010EA6FB0C584FF000074FF000055F
:10343000E6FB0E87A1FB08C6A0FB07CE16EB0E0627
:1034400045F10005E1FB076515F1E04E7EBFA4F5EF
:1034500080345FEA46066D4116F1800745F10005AC
:103460004FEA17274FEA066647EA0567A6F1DE46E8
:10347000B6F1805F4FEA15251FD9384624F0010CBC
:1034800005EBC471BCF1FE6F01EB0C1102D8F0BC6E
:10349000BDE8008124425CBF01F5801E9EEAC47F26
:1034A00002D4F0BCBDE80081244238D4F0BCA1F1C4
:1034B000C041BDE8004100F02DBA4FEAD22242EAF5
:1034C00043524FEAD323A7FB02864FEAD02040EABB
:1034D000415007FB03661EEA0E0F4FEAD12105FBA0
:1034E000026658BFA6EB0056B6EB00564FEA520EE6
:1034F0004EEAC37E18EB0E0E56EB530EBDD518EBFD
:1035000002085E417F1C55F10005B6E74FF48015B7
:103510004FF000074FF000064FF00008ADE7F0BC99
:103520004FF0000001F1C04101F00041BDE8008111
:1035300011EA0C1F0CEA131500D00CE013EA0C1F63
:1035400000F025804FF00000F0BC81EA030101F09B
:103550000041BDE80081F0BCBDE8004181EA030103
:1035600000F0D8B9F0BCBDE8004170B500F084F9B6
:10357000097EFC3E00F007B881EA03014FF000002D
:1035800001F00041704781EA030100F0C3B9F0BCCB
:10359000BDE800414FF0000021497047FFFDFBF9F5
:1035A000F7F5F4F2F0EEEDEBE9E8E6E4E3E1E0DE76
:1035B000DDDBDAD8D7D5D4D3D1D0CFCDCCCBCAC8E8
:1035C000C7C6C5C4C2C1C0BFBEBDBCBBBAB9B8B70F
:1035D000B6B5B4B3B2B1B0AFAEADACABAAA9A8A802
:1035E000A7A6A5A4A3A3A2A1A09F9F9E9D9C9C9BD0
:1035F0009A9999989797969595949393929191907B
:103600008F8F8E8E8D8C8C8B8B8A8989888887870B
:103610008685858484838382828181800000FF0780
:103620000000F87F4FEA1153A3F58063D3F11E0326
:10363000A8BFD3F1200C08DB4FF0004242EAC122C0
:1036400052EA505232FA03F0704709420BD4102B61
:10365000C4BF0020704703F5787CBCF1FF3F05D064
:103660004FF0FF3070474FF00000704770B500F02A
:1036700003F900BF4992248000207047F0E710F062
:10368000004248BF4042B0FA80F310FA03F10AD07A
:10369000C3F11D0303F580634FEA415002EB03526F
:1036A00002EBD12170474FF00000704751EA030C44
:1036B00017D41CF5801F58BFBCF5801F00F1068091
:1036C000994218BF704708BF9042704707D711F55D
:1036D000801F58BF13F5801F19D499427047894243
:1036E00070471CF5801F08D5BCF5801FF7D58B42AD
:1036F00018BF704708BF824270474FF4001C1CEB94
:10370000410F38BF1CEB430F01D28B42704770B59D
:1037100000F0B2F8922449004FF000514FF080536E
:10372000FFF71CBEDFF848C170B51CEA111E1EBFB2
:103730001CEA13159EEA0C0F95EA0C0F00F06F803F
:1037400081EA030423EA4C134EEAD47E21EA4C11A9
:1037500041F4801143F48013AE44A1FB024CA0FB62
:103760000365AEF17F7E361955EB0C05A1FB034CCA
:103770004CF10003A0FB021C16EB0C06654153F153
:103780000003094218BF46F0010613F4007F0BD175
:103790004FEA03314FEA0530340341EA155140EA5C
:1037A00016506FF003020AE04FEAC3214FEAC5202A
:1037B000F40241EA555140EA56506FF0020202EB22
:1037C0002E4201EB025585EACE710AD05FEA440C25
:1037D00018BF24F0004450F1000041F1000120EA3C
:1037E000D47040F2FE7C624500D270BDA84214BF86
:1037F0004FF080444FF04044002E08BF0024BEF13B
:10380000806FA8BFA1F1C041BDE8704080F2828006
:103810004FF0000001F1C04101F0004170479EEA05
:103820000C0F0CEA131518BF95EA0C0F06D04FF0D9
:10383000000081EA030E0EF0004170BD00F01CF89C
:103840008900013E00F007B800F009B84FEA430CC8
:103850005FEA5C5C08D081EA030100F05BB84FEAE4
:10386000410C5FEA5C5CF6D14FF000000149704703
:103870000000FF070000F87F0EF1020E2EF0030E8D
:103880005EF8046B364205D4012A43EB030515F5B7
:10389000001F12D8012841EB010C1CF5001F0CD8A9
:1038A0000ED14FEAD17C15F5001F0CEB4C0C0CF13E
:1038B000020C08BF4CEBD37C04E04FF0080C01E095
:1038C0004FEAD37C0CEB4C0526FA05F606F007060A
:1038D000B6F1040C06D20EEB860CBDE870404CF03D
:1038E000010C6047DFE80CF0090B02024FF00041C9
:1038F0004FF00000A1F5002170BD194610460128C7
:1039000051EB010418BFD4F5001484BF002001F06E
:10391000004170BD0808A0F500114FEA3101704761
:1039200053EA010C17D41CF5801F58BFBCF5801F4B
:1039300000F106808B4218BF704708BF8242704773
:1039400007D713F5801F58BF11F5801F19D48B427C
:1039500070479B4270471CF5801F08D5BCF5801F3F
:10396000F7D5994218BF704708BF904270474FF48F
:10397000001C1CEB430F38BF1CEB410F01D29942D6
:1039800070470FB40CBC03BCFFF7C1BE10B591EA81
:10399000030F48BF83F000433FF540AC841A71EB3E
:1039A000030C07D212198CF0004C43EB0C03001BE4
:1039B00061EB0C01DFF8A4E14FEA1154A4EB135CB6
:1039C0001EEA430F18BF9EEA445F00F0B08023EA6E
:1039D0006E03524221EA0451C3EB6E0338BF5B1EF3
:1039E000DCF1200E25D322FA0CFE10EB0E0043FA78
:1039F0000CFE41EB0E01CCF1200E03FA0EFE10EB93
:103A00000E0051F10001CCF1200E29D412FA0EF271
:103A100001EB0451BDE8104058BF7047401C1CBF6B
:103A2000B2F1004F704700280CBF491C20F0010084
:103A3000704712EB020E43EB030218BF4FF0010E6A
:103A40004EEA4202ACF1200CDCF11E0E54D943FACE
:103A50000CFE10EB0E0051F1FF31CCF11E0ED5D54E
:103A60000EF1010E12FA0EFE404141EB010101EB95
:103A7000445C5FEA5C5C10D910EBDE7001EB045132
:103A800038BFBEF1004FBDE8104018BF7047002896
:103A90000CBF491C20F00100704730D24FEAD42CF3
:103AA00011F5001124F400641BD0B1FA81F20B3A35
:103AB000A41AA41ED2F12003914030FA03F3194353
:103AC000904001EBCC71002C01EB0451BDE810409B
:103AD000A8BF704701F1C0414FF0000001F0004164
:103AE0007047B0FA80F310FA03F100D110BDE41A68
:103AF000173C4805C90AE4E701EB045110BD491021
:103B000001EB0451BDE810404FEA300002E04FF0F5
:103B1000000170474A0008BF0042F8D0B2F5001F0C
:103B200028BF704701F000414FF0000070479EEA47
:103B3000445F07D011EA5E0FBDE8104004BF0021CA
:103B400000207047BDE8104070B5FFF795FE00BF3C
:103B500040DFF63E83F00041104670470000E0FF72
:103B600043004FEAD30C4FEA3C0C43401FBF4007D1
:103B70000CF1605113F0FE4F70471CF0006F03D141
:103B800000200CF0004170470CF0004343EA5070F5
:103B900010B540EACC0000F067F800BF00000092CA
:103BA0004FEA0001FFF7B6BE4FF000414FF00000B2
:103BB000A1F500217047401058BFC0F140404910A6
:103BC00058BFC1F140418142EFF3008070470000CF
:103BD00010F0004148BF4042B0FA80F310FA03F2FF
:103BE000C3F19D030BD051EAC35101EB12205306E0
:103BF00038BF704700F1010008BF20F00100704796
:103C000050EA010C00F113801CF5000F58BFBCF501
:103C1000000F01D48842704707D710F5000F58BF36
:103C200011F5000F15D488427047894270471CF582
:103C3000000F04D5BCF5000FF7D5814270474FF057
:103C4000807C1CEB400F38BF1CEB410F01D281423E
:103C5000704710B500F008F8922449004FF000506A
:103C60004FF08051FFF7A7BF0EF1020E2EF0030EAA
:103C70005EF8044B244204D44FEA4102B2F17F4F74
:103C800011D84FEA4003B3F17F4F0CD80ED14FEA61
:103C9000D07CB2F17F4F0CEB4C0C0CF1020C08BF46
:103CA0004CEBD17C04E04FF0080C01E04FEAD17CF2
:103CB0000CEB4C0324FA03F404F00704B4F1040CF5
:103CC00006D20EEB840CBDE810404CF0010C6047AE
:103CD000DFE80CF0070802024FF00040A0F580007A
:103CE00010BD0846420018BFD2F1807288BF00F0B4
:103CF000004010BDFF2141EAD050C005704700C10F
:103D0000814001C0804101C0804100C1814001C0AB
:103D1000804100C1814000C1814001C0804101C09B
:103D2000804100C1814000C1814001C0804100C18B
:103D3000814001C0804101C0804100C1814001C07B
:103D4000804100C1814000C1814001C0804100C16B
:103D5000814001C0804101C0804100C1814000C15B
:103D6000814001C0804101C0804100C1814001C04B
:103D7000804100C1814000C1814001C0804101C03B
:103D8000804100C1814000C1814001C0804100C12B
:103D9000814001C0804101C0804100C1814000C11B
:103DA000814001C0804101C0804100C1814001C00B
:103DB000804100C1814000C1814001C0804100C1FB
:103DC000814001C0804101C0804100C1814001C0EB
:103DD000804100C1814000C1814001C0804101C0DB
:103DE000804100C1814000C1814001C0804100C1CB
:103DF000814001C0804101C0804100C1814000C0BC
:103E0000C101C30302C2C60607C705C5C404CC0C62
:103E10000DCD0FCFCE0E0ACACB0BC90908C8D818D2
:103E200019D91BDBDA1A1EDEDF1FDD1D1CDC14D4E2
:103E3000D515D71716D6D21213D311D1D010F03012
:103E400031F133F3F23236F6F737F53534F43CFC22
:103E5000FD3DFF3F3EFEFA3A3BFB39F9F83828E8D2
:103E6000E929EB2B2AEAEE2E2FEF2DEDEC2CE424A2
:103E700025E527E7E62622E2E323E12120E0A06012
:103E800061A163A3A26266A6A767A56564A46CACE2
:103E9000AD6DAF6F6EAEAA6A6BAB69A9A86878B852
:103EA000B979BB7B7ABABE7E7FBF7DBDBC7CB47462
:103EB00075B577B7B67672B2B373B17170B0509012
:103EC00091519353529296565797559594549C5CA2
:103ED0005D9D5F9F9E5E5A9A9B5B99595898884852
:103EE00049894B8B8A4A4E8E8F4F8D4D4C8C448422
:103EF000854587474686824243834181804000C092
:103F0000C101C30302C2C60607C705C5C404CC0C61
:103F10000DCD0FCFCE0E0ACACB0BC90908C8D818D1
:103F200019D91BDBDA1A1EDEDF1FDD1D1CDC14D4E1
:103F3000D515D71716D6D21213D311D1D010F03011
:103F400031F133F3F23236F6F737F53534F43CFC21
:103F5000FD3DFF3F3EFEFA3A3BFB39F9F83828E8D1
:103F6000E929EB2B2AEAEE2E2FEF2DEDEC2CE424A1
:103F700025E527E7E62622E2E323E12120E0A06011
:103F800061A163A3A26266A6A767A56564A46CACE1
:103F9000AD6DAF6F6EAEAA6A6BAB69A9A86878B851
:103FA000B979BB7B7ABABE7E7FBF7DBDBC7CB47461
:103FB00075B577B7B67672B2B373B17170B0509011
:103FC00091519353529296565797559594549C5CA1
:103FD0005D9D5F9F9E5E5A9A9B5B99595898884851
:103FE00049894B8B8A4A4E8E8F4F8D4D4C8C448421
:103FF0008545874746868242438341818040000051
:104000002040000800000020E00100006C010008D2
:1040100070400008E0010020982F0000C80100084F
:1040200001470413556601DF6655556602010121FB
:104030002A10180A1503180A13041801262808C1A3
:10404000814001C0804104690C2908E918A91C09B4
:104050001A30091638093660092E70092F60312D83
:104060000102030404000900060708090204060807
:0400000508000131BD
:00000001FF
